:400000000080002011000000CD060000CD06000008B5044B1A6803F53F5302331A6000F05DFB00BFFA46004010B5054C237833B9044B13B10448AFF300800123237010BD79
:400040008881FF1F000000007C330000084B10B51BB108490848AFF300800848036803B910BD074B002BFBD0BDE81040184700BF000000008C81FF1F7C330000C880FF1F24
:40008000000000000000000010B562B600F014FE3D4800F003FE00F0D5FE3C4800F0C4FE012000F0DDFE00F035FC00F0EBFC00F053FD00F085FC00F06BFB00F05BFD00F0CF
:4000C000BFFD00F03FFE00F087FE00F061FB00F05FFB00F08DFB00F003FE00F001FE00F019FE00F067FD2A4B186000EB80004300284A13601021284A1160184602F0CCFAAF
:400100000022264B02F02EFB02F024FE244B1860244903F031F8244B186040F25712234B1A60002000F0FAFD0A2000F001FC002422E0204602F0B0FA02460B4600204FF0E5
:40014000804100F0F1FF02F0BDFD02F0A5FA02460B460BA1D1E9000102F050F902F0B2FDC0B200F0B1FD124B13F8240000F0B2FD012000F0DDFB0134032CDADDD7E700BF09
:400180000000000000E06F4005030000D5030000E081FF1FCC81FF1FDC81FF1F0000F03E0C82FF1F0050C3470882FF1F0482FF1FE481FF1F38B504461B4B186802F0D4FE87
:4001C000214602F025FF4FF07C5102F021FF174902F01EFF03F06CF8154B186000241CE0144880FB0231D317C3EBA10303EB83035900531A0E4D45F82430013455F8243064
:4002000080FB0320DB17C3EBA00002F045FA00F08FFF02F057FD45F82400054B53F82420092ADDDC38BD00BF0482FF1F00007A44BC81FF1F6766666638B5002456E02D4BF6
:4002400053F82430092B41D8DFE803F0050B11171D23292F353B284B1A68284B43F8242034E0254B5A68254B43F824202EE0224B9A68224B43F8242028E01F4BDA681F4BF5
:4002800043F8242022E01C4B1A691C4B43F824201CE0194B5A69194B43F8242016E0164B9A69164B43F8242010E0134BDA69134B43F824200AE0104B1A6A104B43F824209C
:4002C00004E00D4B5A6A0D4B43F82420012C0CD10A4D55F8240002F0CFF90022084B02F08FF802F017FD45F824000134032CA6DD38BD00BFBC81FF1FCC80FF1FE481FF1F63
:400300000000604008B500F055FCC0F51C50103002F02AFE094B196802F07AFEFFF74AFFFFF78AFF00F0C8FC012000F0E7FC00F03BFC002000F0E2FC08BD00BF0882FF1FBE
:4003400008B500F085FD0D4B186000F081FD012812D100F02BFA002000F058FA002000F05DFA00F015FA002000F0C8FC002000F07DFD012000F080FD08BD00BFFC81FF1F1C
:4003800010B5114B1B6873B9104CE06802F074F900220F4B02F034F802F0BCFCE0600122094B1A6010BD012B0DD1084CE06802F063F90022064B02F021F802F0ABFCE060DD
:4003C0000022014B1A6010BDF881FF1FE481FF1F0000604008B50E4B9B6A23B9FFF7B0FF05220B4B9A620A4BDB6A2BB9FFF7C8FF4FF47A72064BDA62064A13680133136010
:40040000034B9A6A013A9A62DA6A013ADA6208BDCC80FF1FA481FF1FFEE700BFF0B40022174611E050F82760F3B226F0FF0608E001EB420511F812406D78A5550132013BFB
:40044000DBB2002BF4D101371E2FEBD9F0BC7047174B1B78DBB203F00701164A11701B090132137048F28122134B1A80092203F5E6631A70202203F5E2731A70802204335E
:400480001A70102204331A7002230C490B7040210B480170013001700A490A700A4A137023220A4B1A704422A3F534731A707047CF0100496E5800403C510040885A004047
:4004C000CB5A0040D85A0040DC5A0040465B004008B50A46002102F048FF08BD38B5EF22264B1A801823264A137040F2572102321180023213700222224B1A7008224FF0C1
:4005000040231A70032103F5007319701E4B1B78DBB21E490B701E4B1A8041F25122023B1A80002419250CE01A4B1B7803F0010343EA440404F003044FF4F07000F0A4FCEB
:40054000013D0DB1032CEFD115B90320FFF764FF114B4FF480721A8007221A7000220F490A704820023108701A700222033B1A700B4A137843F00303137038BD804000405A
:40058000824000400043004008010049A146004022420040254200400440004006400040A243004008B502F0D5FE08BD38B572B6324A137843F00403137000240CE0304D16
:4005C000630019194A0011462A44084691882858FFF77EFF0134E4B2072CF0D929494FF09040FFF71BFF40F20332274B1A80274A137843F0020313701032137843F0020376
:400600001370234C237843F040032370A2F58632513A137843F01003137008221D491E48FFF7C0FF08221D491D48FFF7BBFF08221C491D48FFF7B6FF08221C491C48FFF71E
:40064000B1FF08221B491C48FFF7ACFF1B4A137843F0080313701A4D61232B70FFF73EFF81232B700122174B1A70FFF7F1FE0E2221461548FFF796FF38BD00BFE8460040F9
:40068000803300007C0000484E58004003500140A043004024030048025100402C030048C251004034030048125100403C0300482251004044030048325100402243004007
:4006C0000048004004000840B043004008B502F015FE03680C2B00D1FEE7FEE708B5104E104D16E029686B68AC68002204E051F8040B43F8040B0432A242F8D1E868002211
:4007000003E0002143F8041B04328242F9D11035013E002EE6D102F0F7FDFFF7B5FCFEE7010000000834000008B5104A104B1A60104A136843F40073136000230AE0032B66
:4007400003D80D4A52F8231000E00C490C4A42F8231001332F2BF2D90A4B1A780A4B1A70074A0A4B1A60FFF721FF08BD0004FA050CED00E014ED00E000000000CD06000028
:400780000080FF1FBC760040C080FF1F08ED00E0054A137843F0020313701032137843F002031370704700BFA2430040054A137803F0FD0313701032137803F0FD031370AB
:4007C000704700BFA24300400A22014B1A7070478665004008B500F05FFB044A137843F02003137000F05CFB08BD00BF9665004008B5054B1B7823B9FFF7E6FF0122024BF4
:400800001A70FFF7E7FF08BDAC81FF1F00F07F00014B1870704700BF76650040014B1870704700BF77650040084A137843F0080313701032137843F00803137002F5A552EE
:400840001E32137843F0800313707047A9430040044A137803F0FC0300F0030018431070704700BF0D58004010B487B00446194B03AA1868596803C2197A11706A4653F862
:400880000C0F596803C21B7A1370082C1ED812490B7803F08003DBB20B70087806AB1C4414F80C3C14F8182C920002F00C02134303430B70094A137803F0F3031370117848
:4008C00014F8183C0B4343F00C03137007B010BC704700BFB03300000E5800400D58004008B50C22084B1A70084A137843F0200313700022064B1A700620FFF7B5FF0320F0
:40090000FFF7A6FF08BD00BF0C5800400D5800400E58004008B5054B1B7823B9FFF7E0FF0122024B1A70FFF77FFF08BDAD81FF1F10B5044605E0084B186800F0A5FAA4F5EA
:400940000044B4F5004FF6D8034B586800FB04F000F09AFA10BD00BF0C81FF1F08B5034B1B7A00FB03F000F08FFA08BD0C81FF1F084A137843F060031370A2F5A652133A6C
:40098000137843F0080313701032137843F008031370704777580040054B1A7802F0FC021A701A7800F0030010431870704700BF5E58004008B50220FFF7EEFF08BD00BF29
:4009C00008B5054B1B7823B90122034B1A70FFF7F1FFFFF7CDFF08BDAE81FF1F054A137843F0020313701032137843F002031370704700BFA8430040054B1A7802F0FD0235
:400A00001A701A7800F0020010431870704700BF24580040014B1870704700BF815B0040064B1B78C3F3810303F19243063393F83031DBB2024A1370704700BF245800409B
:400A40000946004008B5064B1A7802F0F3021A701A7800F00C0010431870FFF7E1FF08BD2458004010B50024054B1C7001331C700420FFF7E7FF2046FFF7BEFF10BD00BFEC
:400A80002458004008B5074B1B7823B9FFF7EAFF0122044B1A70FFF7A1FFDA20FFF7BAFF08BD00BFAF81FF1F054A137843F0080313701032137843F008031370704700BF71
:400AC000A74300400F490B7803F0FC0200F0030313430B7001280AD10B4B1B78DBB20B4A13700B4B1B78DBB2013213707047094B1B78DBB2054A1370074B1B78DBB2013219
:400B00001370704743580040130100493646004017010049B3010049BB01004908B50220FFF7D0FF0B4B1A7802F0DF021A701A7802F0FB021A701A7842F008021A7003F5E0
:400B400027731A7802F0E7021A701A7842F010021A7008BD4358004008B5054B1B7823B9FFF7DCFF0122024B1A70FFF79DFF08BDB081FF1F084A137843F00103137010321E
:400B8000137843F00103137002F64D32137843F001031370704700BFA3430040014B1870704700BF034F0040014B1878704700BF034F0040014B188880B27047044F004070
:400BC000014B1880704700BF044F0040014B1880704700BF064F004008B5164A137803F0010313700232137803F0FC031370124B1A7802F0CF021A701A7842F030021A7007
:400C00001A7802F0F0021A701A7842F00F021A700A4A137843F00103137042F20F70FFF7CFFF42F20F70FFF7D1FF0420FFF7B6FF08BD00BF004F00400B4F0040014F0040C0
:400C400008B5054B1B7823B9FFF7C6FF0122024B1A70FFF78FFF08BDB181FF1F024B1B68C3F88400704700BF08ED00E04001C0B2014B1870704700BF11E400E04FF4003209
:400C8000014B1A60704700BF00E100E04FF40032014B1A60704700BF80E100E010B50446FFF7F4FF2046FFF7D9FF0720FFF7DEFFFFF7E4FF10BD00BF4FF40032014B1A607F
:400CC000704700BF80E200E0014B1870704700BF7C640040014B1870704700BF77640040054A137843F0010313701032137843F001031370704700BFA2430040014B1870E3
:400D0000704700BF7D64004008B500F023F900F02BF908BD08B5FFF7F7FF08BD38B5044600F0BAF8054600F049F904F1804000F500400478E4B200F04FF9284600F0B0F87C
:400D4000204638BD024A137843F080031370704774650040014B1870704700BF87650040014B1878704700BF67650040014B1860704700BF24650040014B1868704700BF1F
:400D800044650040014B1860704700BF0465004008B501E0FFF7F0FFFFF7E2FF10F0080FF8D108BD08B545F6BF50FFF7DFFF45F6BF50FFF7E7FF00F06FF8064A137843F002
:400DC0001003137000F06CF8FFF7E2FF0120FFF7C1FF08BD9765004008B5054B1B7823B9FFF7E0FF0122024B1A70FFF7ABFF08BDB281FF1F014B1B681864704708ED00E082
:400E00004001C0B2014B1870704700BF00E400E00122014B1A60704700E100E00122014B1A60704780E100E010B50446FFF7F6FF2046FFF7DFFF0720FFF7E2FFFFF7E8FFA0
:400E400010BD00BF0122014B1A60704780E200E0024B1878C0F34010704700BF01510040014B1870704700BF7A650040014B1870704700BF75650040014B1870704700BF05
:400E80007B650040000000000230800803D000BF01380046FCD17047EFF3108072B6704780F31088704700BF10B500F09DF800F0E5F810BB012000F0C3F8072818D1022108
:400EC0000F4800F0A3F802280AD102E00120FFF745FD0C4B1B7813F0020FF7D0002409E0084B1B7813F0020FE9D04FF0FF3401E04FF0FF3400F0E8F800E00424204610BD7B
:400F00001082FF1F2247004010B500F06DF800F0B5F8D0B900F0F4F80446072812D102E00120FFF71BFD0A4B1B7813F0020FF7D0074B1B7813F0020F04D0054B1B789B08B9
:400F400000D1002400F0C0F800E00424204610BD2247004008B5FFF7D7FF034610B9FFF7A3FF0346184608BD08B5FFF795FF0F4A137843F0080313701032137843F008035A
:400F80001370C8220A4B1A700A4A137843F0100313701032137843F010031370064B1B7813F0200FFAD0FFF77BFF08BDA043004001470040AC43004000470040054A137857
:400FC00043F001031370034B1B7813F0020FFAD0704700BF02470040024A137803F0FE03137070470247004008B5FFF755FF064A137843F0080313701032137843F008033D
:401000001370FFF74DFF08BDA043004070B506460D4600240CE00120FFF7A0FC064B1B7813F0010FF7D0054B1B7833550134E4B2AC42F3D3204670BD2247004020470040F1
:401040000C4B1B7813F0020F0FD00B4BB6221A70E1221A700E221A7002331B7813F0020F05D1054B187007207047042070470920704700BF224700402047004010B5FFF7A7
:401080000BFF0F4B1B78A3B901220D4B1A700D4B1B6813F0010F0ED00A4A136823F00103136000BF00BF00BF0122054B5A60002402E0042400E00024FFF7F2FE204610BDFE
:4010C000B481FF1F0400084008B5FFF7E5FE0A4B00221A705B68012B0AD1084A136843F00103136000BF00BF00BF0022024B5A60FFF7D6FE08BD00BFB481FF1F0400084026
:40110000074B1B7813F0020F08D0064BB6221A70E0221A700D221A700720704704207047224700402047004000F08AB800000000C1F30A522DE9F843A2F2FF36132E0B46EF
:4011400004460D46884607461CDC002E3FDB3A4A864642FA06F901EA0902024317D034A3D3E9002301F04CF90022002301F08AFD20B1002D40DB28EA0905002738462946D4
:40118000BDE8F883332E06DDB6F5806F2FD020461946BDE8F883A2F213424FF0FF3929FA02F910EA090FF2D021A3D3E9002301F027F90022002301F065FD0028DED0002DAC
:4011C00020DB454627EA090738462946D8E718A3D3E9002301F014F90022002301F052FD0028CBD0002D18DB00273D46C6E702460B4601F005F9CCE74FF4801343FA06F6FB
:40120000B044B8E7142E10D00123C6F1340603FA06F6371928BF9844D3E725F00042074B224318BF1D460027A8E705F10108C8E79C7500883CE4377EFFFF0F000000F0BF48
:401240002DE9F04F8DB006460F4614461D4600F08FF9DFF81093CDE9000199F90080B8F1FF3F46D022462B462046294601F014FD834600283DD132463B463046394601F038
:401280000BFD8246002874D1304639460022002301F0D0FC002833D0002200232046294601F0C8FC8346B8B1A94A012300200021CDF828A0CDE90467CDE90645CDE9080108
:4012C00003920293B8F1000F6CD0A24B0022104619460DB0BDE8F08F2046294600F072FF38B1002200232046294601F0ADFC00286AD1DDE90023104619460DB0BDE8F08F76
:40130000DDE9000100F05EFF804600287DD0DDE900014FF0000A4FF0000B52465B4601F089FC0028E5D03046394600F04BFF0028DFD02046294600F045FF0028D9D099F906
:401340000030834804210022022BCDE90467CDE90645CDE908AB039002910A9204D002A800F036FF002847D101F0C8FF2223036042E0002200232046294601F05BFC0028C2
:40138000B7D0744B724800220121B8F1020FCDF828B0CDE90467CDE90645CDE9082303900291A8D002A800F013FF00287ED00A9B43B301F0A3FFDDE908230A990160104656
:4013C00019460DB0BDE8F08F614999F900300122CDF828B0CDE90467CDE9064503910292002B68D05C490020022BCDE9080166D101F084FF212303600A9B1BB101F07EFFF2
:401400000A9B0360DDE9082375E73046394600F0D9FE00283FF47BAF2046294600F0D2FE00283FF474AFDDE900231046194601F033FC00286FD1464B99F90080039303237E
:401440000A90CDE90467CDE906450293B8F1000F3BD1DFF814B14FF0604A0022002330463946CDE908AB01F0EFFB00283FF477AF00223A4B2046294601F074F904460D465C
:4014800000F0AEFE02460B462046294601F0D2FB00283DD1324B4FF06042CDE9082399F90080B8F1020F7FF45AAF5DE701F026FF212303607BE700230024CDE9083402A861
:4014C00000F086FE002897D192E7DFF8A0B04FF0000A0022002330463946CDE908AB01F0B3FB0028DDD000221C4B2046294601F039F904460D4600F073FE02460B4620466A
:40150000294601F097FB18B9134B0022CDE9082399F90080C5E70E4A99F900900123CDF82880CDE90467CDE9064503920293B9F1000FC0D0002200231046194601F03CFA08
:40154000B9F1020FCDE908013FF452AFB7E700BFC83300000000F03F0000F0FF0000E03FFFFFEFC71C81FF1FFFFFEF470000F07F2DE9F04F23F0004858EA020993B03CD0CA
:40158000714C21F00046A64283460D460CDD06F1404606F5801656EA0B0038D183466B49584613B0BDE8F08F9A4696462BD0A045EDDC654CA04578D0002D0F468146CDE984
:4015C000002376DB0024BEF1000F27D15E4B984500F08B805D4B984552D0BAF1804F00F0C9835B4B9A4519D1002D17DB4846394613B0BDE8F04F00F01DBDCB465846534968
:4016000013B0BDE8F08F0028C1D1B045D1DD514813B0BDE8F04F00F0DDBD00244846394600F0CCFDBBF1000F1CD0ED0F013D54EA050370D0484B984540F3948003F1047329
:40164000984540F30D84454B9E4270DDBAF1000F70DD3BA3D3E900231046194601F082F883469DE726B1394B25F040429A42DCD1BAF1000FC0F2B783002D08DB83468FE76B
:40168000BAF1000FC0F25E84CB46394688E706F1404606F5801656EA040300F08384012CECD101F1004183467AE7BEF1000F83D06DE72B4B98452CDCA3F15473984581DDF4
:4016C0004FEA2853A3F2FF33142B40F35384C3F134032EFA03F202FA03F39E457FF472AF02F00102C2F102046DE706F1404303F5801353EA0B0300F03A83184B9E4240F340
:401700006783BAF1000F15DBDDE900349B46214646E7022457E74A4648463B46394600F06DFE02460B4601F047F9834638E7BAF1000F8EDB4FF0000B594631E7AFF30080D1
:401740009C7500883CE4377E0000F07F0000F03F0000E03FCC3300000000E041FFFFEF3FFFFF3F43B6F5801F4FF0000205DAD04B00F0F8FF0E466FF03402DFF844E33315D7
:40178000C6F31306A3F2FF3346F07F57764503EB020A47F4401740F3C983C64B00229E4240F304840023CDE90823CDE90C23C24B0022CDE906230AF1010AA7F5801700269A
:4017C0003946DDE90623CDE90A0100F017FEDDE9062380468946DDE90A0100F011FE02460B460020B44901F0E7F80A4601461346CDE90E1202464946404600F0B3FF8C4644
:4018000083467B1043F0005303F5002399190020CDE904BC06460F464FF0000B6146584632463B46CDE910BCCDE9020100F09AFF02460B464046494600F0E0FDDDE9062314
:40184000804689463046394600F0D8FD02460B46DDE90A0100F0D2FDDDE9022300F082FF02460B464046494600F0C8FDDDE90E2300F078FFDDE90478CDE906013A464346CB
:401880003846414600F06EFF77A3D3E9002306460F4600F067FF76A3D3E9002300F0B0FD32463B4600F05EFF73A3D3E9002300F0A7FD32463B4600F055FF71A3D3E9002342
:4018C00000F09EFD32463B4600F04CFF6EA3D3E9002300F095FD32463B4600F043FF6CA3D3E9002300F08CFD3246804689463B463046394600F036FF02460B4640464946CF
:4019000000F030FFDDE9022306460F46DDE9040100F076FDDDE9062300F024FF32463B4600F06EFDDDE902678046894632463B463046394600F016FF0022604BCDE90A0133
:4019400000F05EFD42464B4600F05AFDDDE910BC0F46DDE902015A463B46CDE90EBC5E4600F000FF0022CDE90201544B3046394600F044FDDDE90A2300F040FD02460B467F
:401980004046494600F03AFDDDE9042300F0EAFE324680468946DDE906013B4600F0E2FE02460B464046494600F02AFD8046894602460B46DDE9020100F022FDDDE90EBCA0
:4019C00035A3D3E900235846CDE906BC5E460F4600F0C8FEDDE90223CDE904013046394600F00CFD02460B464046494600F006FD2BA3D3E9002300F0B5FE2BA3D3E9002339
:401A0000804689463046394600F0ACFE02460B464046494600F0F4FCDDE90C2300F0F0FC80465046894600F037FE06460F46DDE9040142464B4600F0E3FCDDE9082300F09E
:401A4000DFFC32463B4600F0DBFCDDE906BC324658463B46DA468B4600F0D0FCDDE9082330E000BFAFF30080EF4E454A287ECA3F65DBC9934A86CD3F01411DA96074D13F3E
:401A80004D268F515555D53FFFAB6FDBB66DDB3F033333333333E33F000000E009C7EE3FFD033ADC09C7EE3FF5015B14E02F3EBE0000404379B60B000000F03F000008402C
:401AC0008E98030000F09AFCDDE9042300F096FC02460B464046494600F090FC80468946DDE90012013C54EA050314BFD64CD74C0023CDE904340B461446CDE902340023CB
:401B00000293DDE9024508462B461146224600F075FC52465B4600F025FEDDE9002306460F464046494600F01DFE02460B463046394600F065FC06460F4622462B4650463F
:401B40005946CDE9006700F00DFE0B460246804689463046394600F053FCBD4B064699420D460C4640F30E8101F13F4303F5E003034340F0F081A0A3D3E90023DDE9000197
:401B800000F03EFC424682468B464B463046294600F034FC02460B465046594601F072F8002840F0D8812F463B154FF48012A3F2FE3342FA03F32344C3F30A52A54EA2F2D8
:401BC000FF321641C3F3130B0020C2F1140523EA06014BF4801B02460B46002C4BFA05FB40464946B8BFCBF1000B00F007FC02460B4680468946DDE9000100F001FC4FEA44
:401C00000B5A00247EA3D3E9002320460D4600F0A9FD424606460F464B462046294600F0EDFB02460B46DDE9000100F0E7FB76A3D3E9002300F096FD75A3D3E900238046FB
:401C400089462046294600F08DFD02460B464046494600F0D5FB8046894602460B463046394600F0CDFB32463B4604460D4600F0C5FB02460B464046494600F0BFFB2246F7
:401C8000804689462B462046294600F06BFD62A3D3E9002306460F4600F064FD60A3D3E9002300F0ABFB32463B4600F05BFD5EA3D3E9002300F0A4FB32463B4600F052FDBB
:401CC0005BA3D3E9002300F099FB32463B4600F049FD59A3D3E9002300F092FB32463B4600F040FD02460B462046294600F086FB06460F4602460B462046294600F032FDC9
:401D00000022CDE900014FF080433046394600F075FB02460B46DDE9000100F04DFE424606460F464B462046294600F01BFD42464B4600F065FB02460B463046394600F05A
:401D40005DFB22462B4600F059FB02460B4600203D4900F053FB8A44BAF5801FC0F237815146DDE9042300F0FDFC834618E4F346354915E44A4648463B46394600F0F2FC0D
:401D800083460DE4344B21F000479F4240F30181324B0B4403430CD142464B4600F02EFB02460B46DDE9000100F058FF00283FF4FBAE23A3D3E90023DDE9040100F0D2FC02
:401DC0001FA3D3E9002300F0CDFC8346FFF7E8BBBAF1000FBFF6AEACDDE900349B4604F10041FFF7DDBB02460B460020164900F0E3FD41E4AFF30080FE822B654715973C51
:401E000000000000432EE63FEF39FAFE422EE63F396CA80C615C20BED0A4BE726937663EF16BD2C541BDBB3E2CDE25AF6A56113F93BDBE166CC1663F3E5555555555C53FC2
:401E400059F3F8C21F6EA5010000F03F0000F0BFFFFF8F40FFFF0F00FFCB904000346F3F6F4B9E427FF763AC6E4B9E423FF7EEAB00226C4B00F0C2FA5BA3D3E900230646C0
:401E80000F4600F06FFC5AA3D3E90023804689463046394600F066FC002282468B46624B3046394600F05EFC02460B4652A1D1E9000100F0A3FA32463B4600F053FC0246BF
:401EC0000B460020594900F099FA3246CDE902013B463046394600F045FC02460B46DDE9020100F03FFC46A3D3E9002300F03AFC02460B465046594600F080FA02460B4628
:401F000006460F464046494600F07AFA42464B46002082468B4600F071FA02460B463046394600F06BFA80468946D9E500220023CDE90823CDE90C233A4B00220026CDE996
:401F400006233DE44A463B460020364900F034FD8346FFF725BB2CA3D3E90023DDE9040100F000FC28A3D3E9002300F0FBFB8346FFF716BBBEF1000F7FF44FABC3F114032C
:401F800048FA03F202FA03F3984524D07446FFF721BB264B9F423FF707AEDDE902349A469B462EE602460B46FFF7B9BB204B4FF48026CDE9062316A3D3E90023CDE90823DE
:401FC00015A3D3E90023CDE90C23FFF7F9BB5A4600F096F9C5E602F00102C2F10204FFF7F9BA00BFAFF30080000000604715F73F44DF5DF80BAE543E555555555555D53FF2
:40200000FE822B654715F73F9C7500883CE4377E0000004003B8E23F06D0CF43EBFD4C3EFEFFEF3F0000F03F0000D03F0000E03F0000F83F2DE9F0415F4E0C46B6460E40CB
:402040007645054600F0988000290B46024674DD5FEA215E7FD0AEF2FF3EC3F313031EF0010F43F4801363D100273E4603EBD2710B444FEA6E0E520016204FF4001174181B
:402080009C424FEAD2754FEA420202DC1B1B66180F44013805EB43034FEA5101EFD1844620244FF0004109E020D003EBD275013C4FEA51012B444FEA420220D09E4201EB9A
:4020C0000C05F1DA002D05EB010C09DBB0469542A3EB060300D9013B4646521B0844E4E7BCF1000FF2DB06F10108F0E7954217D8002D05EB010C49DB98460023ECE71343CF
:4021000010D140087B1003F17F5303F50013FA0703EB0E57394648BF40F00040BDE8F0813346C2E7411C35D000F001031844E8E75B0003EBD273520096E721F0004606431A
:40214000ECD079BB8E46D30AAEF1150E5205002BF9D0DD0221D4002100E001465B00DC0201F10100F9D5C0F1200422FA04F42343C1EB0E0E82406EE702460B4600F0F2FAF8
:402180002A46234600F03CF9BDE8F081BCF1000FA9DAB1E701372046B4E720244FF0FF310020E2E702460B4600F028F902460B4600F002FCB2E700BF0000F07F21F0004115
:4021C000704700BF41F0004101F58010C00F70470020704700200149704700BF0000F87FF0B5C1F30A5EAEF2FF36132E83B002460B460C464FEAD17507462EDC002E49DBA0
:402200003D49314103EA010010432BD049080B4053EA02070CD04FF48023132E24EA010143FA06F444EA01040CBF4FF000470027324B214603EBC505D5E90045384622460E
:402240002B4600F0DDF8CDE90001DDE9000122462B4600F0D3F803B0F0BD332E06DDB6F5806F45D01046194603B0F0BDAEF2134E4FF0FF3121FA0EF10842F3D0490808427C
:40228000D6D04FF0804320EA010143FA0EFE4EEA0107CDE721F0004101431946E4D0C3F3130343EA000CCCF1000343EA0C0C134B640C4FEA1C3C0CF4002C03EBC5036404D1
:4022C000D3E900674CEA040132463B4600F098F8CDE90001DDE9000132463B4600F08EF8024621F0004141EAC57310461946BBE700F086F8B8E700BFFFFF0F00D0330000EA
:40230000F8B5C1F30A5604460D460B46174606BB21F00043034325D000222F4B00F022FA2E4A044697420D460B462ADBC1F30A56363E40F2FE723E44964228DC002E12DDB0
:4023400023F0FF4323F4E00343EA065520462946F8BD40F2FF729642EBD102460B4600F04FF8F8BDF8BD16F1350F1DDA4CF250339F420CDC14A1D1E9000122462B4600F086
:4023800031F811A3D3E9002300F0ECF9F8BD22460FA1D1E900012B4600F024F80CA3D3E9002300F0DFF9F8BD23F0FF4323F4E003363643EA0655204629460022084B00F0FF
:4023C000D1F9F8BDAFF3008059F3F8C21F6EA5019C7500883CE4377E00005043B03CFFFF0000903C03F0004321F0004242EA0301704700BF81F0004102E000BF83F0004314
:4024000030B54FEA41044FEA430594EA050F08BF90EA020F1FBF54EA000C55EA020C7FEA645C7FEA655C00F0E2804FEA5454D4EB5555B8BF6D420CDD2C4480EA020281EA18
:40244000030382EA000083EA010180EA020281EA0303362D88BF30BD11F0004F4FEA01314FF4801C4CEA113102D0404261EB410113F0004F4FEA03334CEA133302D052426E
:4024800063EB430394EA050F00F0A780A4F10104D5F1200E0DDB02FA0EFC22FA05F2801841F1000103FA0EF2801843FA05F359410EE0A5F120050EF1200E012A03FA0EFC19
:4024C00028BF4CF0020C43FA05F3C01851EBE37101F0004507D54FF0000EDCF1000C7EEB00006EEB0101B1F5801F1BD3B1F5001F0CD349085FEA30004FEA3C0C04F10104F6
:402500004FEA445212F5800F80F09A80BCF1004F08BF5FEA500C50F1000041EB045141EA050130BD5FEA4C0C404141EB010111F4801FA4F10104E9D191F0000F04BF014682
:402540000020B1FA81F308BF2033A3F10B03B3F120020CDA0C3208DD02F1140CC2F10C0201FA0CF021FA02F10CE002F11402D8BFC2F1200C01FA02F120FA0CFCDCBF41EA77
:402580000C019040E41AA2BF01EB0451294330BD6FEA04041F3C1CDA0C340EDC04F11404C4F1200220FA04F001FA02F340EA030021FA04F345EA030130BDC4F10C04C4F1AE
:4025C000200220FA02F001FA04F340EA0300294630BD21FA04F0294630BD94F0000F83F4801306BF81F480110134013D4EE77FEA645C18BF7FEA655C29D094EA050F08BF3B
:4026000090EA020F05D054EA000C04BF1946104630BD91EA030F1EBF0021002030BD5FEA545C05D14000494128BF41F0004130BD14F580043CBF01F5801130BD01F00045E2
:4026400045F0FE4141F470014FF0000030BD7FEA645C1ABF194610467FEA655C1CBF0B46024650EA013406BF52EA033591EA030F41F4002130BD00BF90F0000F04BF002115
:40268000704730B54FF4806404F132044FF000054FF0000150E700BF90F0000F04BF0021704730B54FF4806404F1320410F0004548BF40424FF000013EE700BF42004FEAE4
:4026C000E2014FEA31014FEA02701FBF12F07F4393F07F4F81F06051704792F0000F14BF93F07F4F704730B54FF4607401F0004521F0004120E700BF50EA010208BF7047A4
:4027000030B54FF000050AE050EA010208BF704730B511F0004502D5404261EB41014FF4806404F132045FEA915C3FF4DCAE4FF003025FEADC0C18BF03325FEADC0C18BFEB
:40274000033202EBDC02C2F1200300FA03FC20FA02F001FA03FE40EA0E0021FA02F11444C1E600BF70B54FF0FF0C4CF4E06C1CEA11541DBF1CEA135594EA0C0F95EA0C0F9B
:4027800000F0DEF82C4481EA030621EA4C5123EA4C5350EA013518BF52EA033541F4801143F4801338D0A0FB02CE4FF00005E1FB02E506F00042E0FB03E54FF00006E1FB3A
:4027C00003569CF0000F18BF4EF0010EA4F1FF04B6F5007F64F5407404D25FEA4E0E6D4146EB060642EAC62141EA55514FEAC52040EA5E504FEACE2EB4F1FD0C88BFBCF5D7
:40280000E06F1ED8BEF1004F08BF5FEA500E50F1000041EB045170BD06F0004646EA010140EA020081EA0301B4EB5C04C2BFD4EB0C0541EA045170BD41F480114FF0000EDF
:40284000013C00F3AB8014F1360FDEBF002001F0004170BDC4F10004203C35DA0C341BDC04F11404C4F1200500FA05F320FA04F001FA05F240EA020001F0004221F00041B2
:4028800010EBD37021FA04F642EB06015EEA430E08BF20EAD37070BDC4F10C04C4F1200500FA04F320FA05F001FA04F240EA020001F0004110EBD37041F100015EEA430EBF
:4028C00008BF20EAD37070BDC4F1200500FA05F24EEA020E20FA04F301FA05F243EA020321FA04F001F0004121FA04F220EA020000EBD3705EEA430E08BF20EAD37070BDE9
:4029000094F0000F0FD101F00046400041EB010111F4801F08BF013CF7D041EA060195F0000F18BF704703F00046520043EB030313F4801F08BF013DF7D043EA060370479E
:4029400094EA0C0F0CEA135518BF95EA0C0F0CD050EA410618BF52EA4306D1D181EA030101F000414FF0000070BD50EA410606BF1046194652EA430619D094EA0C0F02D1B2
:4029800050EA013613D195EA0C0F05D152EA03361CBF104619460AD181EA030101F0004141F0FE4141F470014FF0000070BD41F0FE4141F4780170BD70B54FF0FF0C4CF455
:4029C000E06C1CEA11541DBF1CEA135594EA0C0F95EA0C0F00F0A7F8A4EB050481EA030E52EA03354FEA013100F088804FEA03334FF0805545EA131343EA12634FEA022252
:402A000045EA111545EA10654FEA00260EF000419D4208BF964244F1FD0404F5407402D25B084FEA3202B61A65EB03055B084FEA32024FF480104FF4002CB6EB020E75EBAF
:402A4000030E22BFB61A754640EA0C005B084FEA3202B6EB020E75EB030E22BFB61A754640EA5C005B084FEA3202B6EB020E75EB030E22BFB61A754640EA9C005B084FEAFF
:402A80003202B6EB020E75EB030E22BFB61A754640EADC0055EA060E18D04FEA051545EA16754FEA06164FEAC30343EA52734FEAC2025FEA1C1CC0D111F4801F0BD141EA06
:402AC00000014FF000004FF0004CB6E711F4801F04BF01430020B4F1FD0C88BFBCF5E06F3FF6AFAEB5EB030C04BFB6EB020C5FEA500C50F1000041EB045170BD0EF0004E1B
:402B00004EEA113114EB5C04C2BFD4EB0C0541EA045170BD41F480114FF0000E013C90E645EA060E8DE60CEA135594EA0C0F08BF95EA0C0F3FF43BAF94EA0C0F0AD150EA1F
:402B400001347FF434AF95EA0C0F7FF425AF104619462CE795EA0C0F06D152EA03353FF4FDAE1046194622E750EA410618BF52EA43067FF4C5AE50EA41047FF40DAF52EAF3
:402B800043057FF4EBAE12E74FF0FF3C06E000BF4FF0010C02E000BF4FF0010C4DF804CD4FEA410C7FEA6C5C4FEA430C18BF7FEA6C5C1BD001B050EA410C0CBF52EA430C9A
:402BC00091EA030F02BF90EA020F0020704710F1000F91EA030F58BF994208BF90422CBFD8176FEAE37040F0010070474FEA410C7FEA6C5C02D150EA013C07D14FEA430C2E
:402C00007FEA6C5CD6D152EA033CD3D05DF8040B704700BF8446104662468C461946634600E000BF01B5FFF7B7FF002848BF10F1000F01BD4DF808EDFFF7F4FF0CBF012015
:402C400000205DF808FB00BF4DF808EDFFF7EAFF34BF012000205DF808FB00BF4DF808EDFFF7E0FF94BF012000205DF808FB00BF4DF808EDFFF7CEFF94BF012000205DF819
:402C800008FB00BF4DF808EDFFF7C4FF34BF012000205DF808FB00BF4FEA410C7FEA6C5C02D150EA013C0AD14FEA430C7FEA6C5C02D152EA033C02D14FF0000070474FF029
:402CC000010070474FEA410212F5001215D211D56FF47873B3EB625212D94FEAC12343F0004343EA505311F0004F23FA02F018BF404270474FF00000704750EA013005D126
:402D000011F0004008BF6FF0004070474FF00000704700BF4A0011D212F5001211D20DD56FF47873B3EB62520ED44FEAC12343F0004343EA505323FA02F070474FF000008B
:402D4000704750EA013002D14FF0FF3070474FF0000070474FEA4102B2F1E04324BFB3F5001CDCF1FE5C0DD901F0004C4FEAC0024CEA5070B2F1004F40EB830008BF20F0A8
:402D80000100704711F0804F21D113F13872BCBF01F00040704741F480114FEA5252C2F11802C2F1200C10FA0CF320FA02F018BF40F001004FEAC1234FEAD32303FA0CFCCB
:402DC00040EA0C0023FA02F34FEA4303CCE77FEA625307D150EA01331EBF4FF0FE4040F44000704701F0004040F0FE4040F40000704700BF80F0004002E000BF81F0004124
:402E000042001FBF5FEA410392EA030F7FEA226C7FEA236C6AD04FEA1262D2EB1363C1BFD218414048404140B8BF5B42192B88BF704710F0004F40F4000020F07F4018BFDB
:402E4000404211F0004F41F4000121F07F4118BF494292EA030F3FD0A2F1010241FA03FC10EB0C00C3F1200301FA03F100F0004302D5494260EB4000B0F5000F13D3B0F182
:402E8000807F06D340084FEA310102F10102FE2A51D2B1F1004F40EBC25008BF20F0010040EA03007047490040EB000010F4000FA2F10102EDD1B0FA80FCACF1080CB2EB0D
:402EC0000C0200FA0CF0AABF00EBC25052421843BCBFD0401843704792F0000F81F4000106BF80F400000132013BB5E74FEA41037FEA226C18BF7FEA236C21D092EA030FCF
:402F000004D092F0000F08BF0846704790EA010F1CBF0020704712F07F4F04D1400028BF40F00040704712F100723CBF00F50000704700F0004343F0FE4040F40000704786
:402F40007FEA226216BF08467FEA23630146420206BF5FEA412390EA010F40F4800070474FF0000304E000BF10F0004348BF40425FEA000C08BF704743F0964301464FF04A
:402F800000001CE050EA010208BF70474FF000030AE000BF50EA010208BF704711F0004302D5404261EB41015FEA010C02BF84460146002043F0B64308BFA3F18053A3F54F
:402FC0000003BCFA8CF2083AA3EBC25310DB01FA02FC634400FA02FCC2F12002BCF1004F20FA02F243EB020008BF20F00100704702F1200201FA02FCC2F1200250EA4C002B
:4030000021FA02F243EB020008BF20EADC7070474FF0FF0C1CEAD0521EBF1CEAD15392EA0C0F93EA0C0F6FD01A4480EA010C400218BF5FEA41211ED04FF0006343EA5010E0
:4030400043EA5111A0FB01310CF00040B1F5000F3EBF490041EAD3715B0040EA010062F17F02FD2A1DD8B3F1004F40EBC25008BF20F00100704790F0000F0CF0004C08BF7B
:4030800049024CEA502040EA51207F3AC2BFD2F1FF0340EAC250704740F400004FF00003013A5DDC12F1190FDCBF00F000407047C2F10002410021FA02F1C2F1200200FA28
:4030C00002FC5FEA310040F1000053EA4C0308BF20EADC70704792F0000F00F0004C02BF400010F4000F013AF9D040EA0C0093F0000F01F0004C02BF490011F4000F013B83
:40310000F9D041EA0C018FE70CEAD15392EA0C0F18BF93EA0C0F0AD030F0004C18BF31F0004CD8D180EA010000F00040704790F0000F17BF90F0004F084691F0000F91F0E0
:40314000004F14D092EA0C0F01D142020FD193EA0C0F03D14B0218BF084608D180EA010000F0004040F0FE4040F40000704740F0FE4040F4400070474FF0FF0C1CEAD052D9
:403180001EBF1CEAD15392EA0C0F93EA0C0F69D0A2EB030280EA010C49024FEA402037D04FF0805343EA111143EA10130CF000408B4238BF5B0042F17D024FF4000C8B42D2
:4031C00024BF5B1A40EA0C00B3EB510F24BFA3EB510340EA5C00B3EB910F24BFA3EB910340EA9C00B3EBD10F24BFA3EBD10340EADC001B0118BF5FEA1C1CE0D1FD2A3FF6A5
:4032000050AF8B4240EBC25008BF20F0010070470CF0004C4CEA50207F32C2BFD2F1FF0340EAC250704740F400004FF00003013A37E792F0000F00F0004C02BF400010F47D
:40324000000F013AF9D040EA0C0093F0000F01F0004C02BF490011F4000F013BF9D041EA0C0195E70CEAD15392EA0C0F08D142027FF47DAF93EA0C0F7FF470AF084676E71D
:4032800093EA0C0F04D14B023FF44CAF08466EE730F0004C18BF31F0004CCAD130F000427FF45CAF31F000437FF43CAF5FE700BF4FEA4002B2F1FE4F0FD34FF09E03B3EBC6
:4032C00012620DD94FEA002343F0004310F0004F23FA02F018BF404270474FF00000704712F1610F01D1420205D110F0004008BF6FF0004070474FF000007047014B1868C0
:40330000704700BF8081FF1F0E4B70B51E460E4C0025E41AA410A54204D056F8253098470135F8E700F05EF8084B094C1E46E41AA4100025A54204D056F8253098470135F7
:40334000F8E770BDF0330000F0330000F0330000F833000010B5431E0A44914204D011F8014B03F8014FF8E710BD03460244934202D003F8011BFAE7704700000000000061
:40338000004F00400C00405100403000F0510040100000000140001000140140000800400140000A004C014000020050014020000111213141615363730000000809010125
:4033C0000507070404000000706F770000000000000000000000304300000000000030C343000000F8B500BFF8BC08BC9E4670474D00000029070000F8B500BFF8BC08BCD3
:403400009E4670472900000018340000C880FF1FC00000009000000000000000C0000000F9000000A4000000B0000000990000009200000082000000F80000008000000094
:403440009800000005000000E8030000080000000400000002000000010000000000E02EC05D00001800000000366E010100000000000000000000000000000000000000CC
:4034800000000000000000000000000000000000E03300000000000000000000000000000000000000000000000000000000000000000000000000000000000000000000F9
:4034C000000000000000000000000000000000002081FF1F00000000000000000000000000000000000000000000000000000000000000000000000000000000000000000D
:40350000000000000000000000000000000000000000000000000000000000000000000000000000000000000000000000000000000000000000000000000000000000008B
:40354000000000000000000000000000000000000000000000000000000000000000000000000000000000000000000000000000000000000000000000000000000000004B
:40358000000000000000000000000000000000000000000000000000000000000000000000000000000000000000000000000000000000000000000000000000000000000B
:4035C00000000000000000000000000000000000000000000000000000000000000000000000000000000000000000000000000000000000000000000000000000000000CB
:020000040003F7
:0200000480007A
:40000000014F0040085200400265004002050140020601401207014007090140040A0140080B0140040C0140050D014029140140101501403C1601401D1701400319014023
:40004000041A0140071B01400240014006410140094201400B4301400D4501400F460140104701400A4801400B4901400C4C0140084D014004500140025101400A870001C5
:40008000011008C0099010C511A660186130867F870D88028A02DB04DF01681069126B017016720280108410850189109E029F01A402AF01E00CE402E802EA20EE02A2043D
:4000C000AE01B302E08CE402E802EA2038803E4058045F011A029B02A204A804B740E080E480EC015B045F01DB04DF016B026C066E086F408802404549FF4AFF4BFF4F01F5
:40010000501852805A045B045D995F016040624064406540668068806A806C806E80C041C9FFCAFFCBFFCD83CE03CF01D018DA04DB04DD09DF01E040E240E440E540E680AC
:40014000E880EA80EC80EE8041024502460148026F01710287019A01A002A502AB40AD01AF80D091D208E280100136013E40404549FF4AFF4BFF4D834E034F0150185602AD
:40018000572C58045A045B045D195E085F016040624064406540668068806A806C806E8083019301B101B701BF40C045C5ECC720C823C9FFCAFFCBFFCD83CE03CF01D0180D
:4001C000D401D904DA04DB04DC90DD99DF01E040E240E440E540E680E880EA80EC80EE800F801F802101224031023A0141024502480249054C025002520159055A8067401D
:4002000069407D408740B404C210CC01CE01D081D218D60BD880DE10EE01A204E810EE015B045F01DB04DF0168016E8088018A40AA04E280EC043220CC10520857206304FF
:40024000A620D460D8401B043F0858029704A628A720C610CE80D6406320690291029704A628A720AC02B101D840DC20EE405310568058405D805F02614062016780880469
:40028000D407D607D803E40189408B4097A098049C409DC09E819F02A201A310AA01B710E001E401E80803408201858087108840972098049C409D809E019F02A201A310DC
:4002C000AE80C008E0012101220885019704A628A720AB10C840E440EE807401870488019704AA08AE20AF20DE20E240E820EE5059085E02632064049804A201A310AB406E
:40030000B702D603D803E80878407E0188408A01A908DC01DE04E005100211011A021B010003040C2033130013000000003838003800000000FBFB00F000000000FFFF000D
:40034000FF0000000000000000000300000000000000000000000000000000000000000000000000000000000000000000000000000000000000000000000000000000007B
:40038000000000000000000000000000000000000000000000000000000000000000000000000000000000000000000000000000000000000000000000000000000000003D
:4003C00000000000000000000000000000000000000000000000000000000000000000000000000000000000000000000000000000000000000000000000000000000000FD
:4004000000000000000000000000000000000000000000000000000000000000000000000000000000000000000000000000000000000000000000000000000000000000BC
:40044000000000000000000000000000000000000000000000000000000000000000000000000000000000000000000000000000000000000000000000000000000000007C
:0200000490006A
:0400000000004005B7
:0200000490105A
:04000000BC90ACAF55
:0200000490303A
:02000000DE39E7
:0200000490402A
:4000000000000000000000000000000000000000000000000000000000000000000000000000000000000000000000000000000000000000000000000000000000000000C0
:400040000000000000000000000000000000000000000000000000000000000000000000000000000000000000000000000000000000000000000000000000000000000080
:400080000000000000000000000000000000000000000000000000000000000000000000000000000000000000000000000000000000000000000000000000000000000040
:4000C0000000000000000000000000000000000000000000000000000000000000000000000000000000000000000000000000000000000000000000000000000000000000
:0200000490501A
:0C00000000012E16106900012E2BEEA24C
:00000001FF